:1010000080680120C5CA0000BD3B040099CA0000E9
:1010100099CA000099CA000099CA000000000000A7
:101020000000000000000000000000000DC30000F0
:1010300099CA0000000000007DC2000099CA0000AB
:101040007DC40000455B04007DC400007DC4000039
:101050007DC400007DC400007DC400007DC400008C
:10106000F35A04007DC400007DC400002B5B040023
:101070007DC400007DC400007DC400007DC400006C
:101080007DC400007DC400007DC400007DC400005C
:101090007DC400007DC400007DC400007DC400004C
:1010A0007DC400007DC400007DC400007DC400003C
:1010B0007DC400007DC400007DC400007DC400002C
:1010C0007DC400007DC400007DC400007DC400001C
:1010D0007DC400007DC400007DC400007DC400000C
:1010E0007DC400007DC400007DC400007DC40000FC
:1010F0007DC400007DC400007DC400007DC40000EC
:1011000001F0FF01102A2BDB10F0070F08D010F8B8
:10111000013B013A8B422DD010F0070F42B3F6D1BC
:10112000F0B441EA012141EA014122F007047FF0D5
:1011300000070023F0E80256083C85EA010586EA2C
:10114000010685FA47F5A3FA87F586FA47F6A5FA68
:1011500087F68EB9EED1F0BC01F0FF0102F0070274
:1011600032B110F8013B013A83EA010313B1F8D11F
:101170000020704701387047002D06BF3546033800
:10118000073815F0010F07D1013015F4807F02BF39
:10119000013015F4C03F0130F0BC0138704700BF8A
:1011A0007BB972B90029BEBF00204FF0004106E0B4
:1011B00008BF00281CBF6FF000414FF0FF3000F067
:1011C00057B8ADF1080C6DE904CE002909DB002BFE
:1011D0001ADB05F0E1F9DDF804E0DDE9022304B0F3
:1011E0007047404261EB4101002B1BDB05F0D4F955
:1011F000DDF804E0DDE9022304B0404261EB410187
:10120000524263EB43037047524263EB430305F0E2
:10121000C3F9DDF804E0DDE9022304B0404261EBEC
:1012200041017047524263EB430305F0B5F9DDF825
:1012300004E0DDE9022304B0524263EB430370474C
:1012400053B94AB9002908BF00281CBF4FF0FF312D
:101250004FF0FF3000F00CB8ADF1080C6DE904CE92
:1012600005F09AF9DDF804E0DDE9022304B07047E7
:10127000704700BF2DE9F14F03F11C0402EB840C11
:101280004FEA930B8A68CB680868496800F046F912
:101290003CE9F0006040694072407B400BF1060E73
:1012A0004EE083EA134480EA134582EA134746BAC4
:1012B00096EA3444604000F00F1684EA063420F0C9
:1012C0000F1684EA161054BA94EA0106724002F02E
:1012D0000F1486EA043622F00F1486EA14124CBA70
:1012E0006540694001F00F1485EA043521F00F14C0
:1012F00085EA14115CBA67407B4003F00F1487EA5B
:10130000043723F00F1487EA141344BA44404DBA4B
:101310004D4056BA56405FBA5F4087EA174886EAA2
:10132000174B84EA17464FEA38488BEA1B4485EA94
:101330001B4788EA1B4580EA3440694072407B4085
:1013400000F0703400F0803500F00F3040EA4400C7
:1013500040EAD50080EA900404F0332480EA840057
:10136000604001F0703401F0803501F00F3141EA46
:10137000440141EAD50181EA910404F0332481EA71
:101380008401614002F0703402F0803502F00F32C7
:1013900042EA440242EAD50282EA920404F033248B
:1013A00082EA8402624003F0703403F0803503F077
:1013B0000F3343EA440343EAD50383EA930404F07A
:1013C000332483EA84036340C943DB4381EA000496
:1013D00083EA044686EA020183EA014382EA33454E
:1013E00083EA14435C4084EA00077FEA040A8AEA3D
:1013F000024A8AEA010B87EA11488AEA374A80EAF8
:10140000060181EA1A418AEA030A04EA0A00454011
:1014100088EA040707EA0B0041408AEA0B0608EA5B
:10142000060084EA34428AEA3A4602EA0603584051
:101430004540414087EA37438BEA3B4003EA0009D5
:1014400085EA090582EA0309464006EA0906714071
:1014500085EA010005EA3546464006EA314181EA5F
:10146000304181EA364606EA304686EA354634405F
:101470000F4086EA010508EA050886EA3640024080
:1014800088EA020881EA314213405C4080EA0203A4
:1014900009EA030987EA0907674088EA040806EAB7
:1014A0000A0601EA0B018AEA0B0425408AEA3A445B
:1014B000204045408BEA3B4B02EA0B02564084EA4F
:1014C0000B04234059406E40694087EA364080EA69
:1014D000384080EA060380EA104481EA134585EA31
:1014E000344585EA17427D4082EA354180EA05406D
:1014F0003CE9F0006040694072407B40BEF1010E63
:101500003FF6CFAE20BC00F05FF828606960AA60AB
:10151000EB60BDE8F08F00BF00F000BA80EA101465
:1015200004F0F01480EA0410604081EA111404F021
:10153000F01481EA0411614082EA121404F0F014FC
:1015400082EA0412624083EA131404F0F01483EA7E
:101550000413634080EA102404F47F4480EA0420EA
:10156000604081EA112404F47F4481EA042161404F
:1015700082EA122404F47F4482EA0422624083EA6D
:10158000132404F47F4483EA0423634081EA500473
:1015900004F0553480EA4400614083EA520404F0C8
:1015A000553482EA4402634082EA900404F0333402
:1015B00080EA8400624083EA910404F0333481EAD3
:1015C00084016340704700BF82EA900404F0333422
:1015D00080EA8400624083EA910404F0333481EAB3
:1015E0008401634081EA500404F0553480EA4400E9
:1015F000614083EA520404F0553482EA44026340B5
:1016000080EA102404F47F4480EA0420604081EAE8
:10161000112404F47F4481EA0421614082EA122407
:1016200004F47F4482EA0422624083EA132404F42F
:101630007F4483EA0423634080EA101404F0F0142A
:1016400080EA0410604081EA111404F0F01481EA89
:101650000411614082EA121404F0F01482EA0412C8
:10166000624083EA131404F0F01483EA0413634025
:10167000704700BF2DE9F14F94464FEA930B8A68FB
:10168000CB6808684968FFF749FF0BF1060E33E0A5
:1016900083EA134480EA134582EA134746BA96EA7E
:1016A0003444604000F00F1684EA063420F00F1630
:1016B00084EA161054BA94EA0106724002F00F143C
:1016C00086EA043622F00F1486EA14124CBA6540FA
:1016D000694001F00F1485EA043521F00F1485EA02
:1016E00014115CBA67407B4003F00F1487EA04379B
:1016F00023F00F1487EA1413BCE8F000604069403F
:1017000072407B4000F0E03400F0103500F00F3004
:1017100040EA540040EAC50080EA900404F0332413
:1017200080EA8400604001F0E03401F0103501F0FF
:101730000F3141EA540141EAC50181EA910404F004
:10174000332481EA8401614002F0E03402F0103574
:1017500002F00F3242EA540242EAC50282EA9204DF
:1017600004F0332482EA8402624003F0E03403F0A0
:10177000103503F00F3343EA540343EAC50383EA09
:10178000930404F0332483EA8403634081EA3247FC
:1017900087EA134581EA354690EA060484EA034B5A
:1017A00082EA1B4280EA044484EA054483EA144A3C
:1017B00085EA14448BEA044B84EA374481EA0B41FE
:1017C00081EA164104EA0A00454082EA04082BEA4D
:1017D000080041408AEA0B0602EA060084EA344324
:1017E0008AEA3A4603EA060778404540414088EADB
:1017F00038478BEA3B4007EA000985EA090583EA96
:101800000709464006EA0906714085EA010005EA33
:101810003546464006EA314181EA304181EA3646A2
:1018200006EA304686EA3546344008EA010886EA88
:1018300001052A4086EA364003405A4081EA314396
:101840001F407C4080EA030709EA070988EA090883
:10185000544088EA020806EA0A0601EA0B018AEA0D
:101860000B0215408AEA3A42104045408BEA3B4061
:1018700003405E404240174079404D404E40E443B3
:10188000F64386EA18435D4085EA054083EA134340
:1018900086EA034183EA384284EA114383EA044337
:1018A0005FEA3343BEF1010E3FF6F2AE1ED4BCE850
:1018B000F0006040694072407B4020BCFFF784FE2E
:1018C00028606960AA60EB60BDE8F08F2DE9E04117
:1018D0004FF2F00280EA1031114080EA01304840B6
:1018E00041088208C3084FF0000E4FE700F01130A6
:1018F00001F0113102F0113203F0113340EA4100DE
:1019000040EA820040EAC3004FF2F00280EA103160
:10191000114080EA01304840BDE8E0812DE9F04FF8
:1019200002F11C050646074600EB850851F8040B3A
:10193000043A46F8040BF9D14FF0010CFFF7C6FF4B
:101940005FEA302080EA0C001ECF41404A405340FD
:101950005C401EC62000464517D04FEA4C0C1CF4D4
:10196000807F18BFACF1E50C2C2DE7D03C2D06D1C3
:10197000FFF7ACFF06CF41404A4006C6100006CF35
:1019800041404A4006C61000D8E736E90F00FFF78D
:10199000C5FD043D86E80F00F7D1BDE8F08F00BF1C
:1019A0002DE9F00391E8F803B2E802105B1854EB5C
:1019B0000C04B2E802104D4156EB0C0692E80610FA
:1019C0004F4158EB020859EB0C0980E8F8038041BD
:1019D0000130BDE8F00370472DE9F00391E8F8030A
:1019E000B2E802105B1A74EB0C04B2E802108D41ED
:1019F00076EB0C0692E806108F4178EB020879EB43
:101A00000C0980E8F80380414042BDE8F0037047CC
:101A10002DE9F003524290E83800B1E88003174006
:101A2000DB1918EA020854EB080419EA020955EB1D
:101A3000090538C090E8780091E8820311404B41D5
:101A400017407C4118EA020855EB080519EA02091B
:101A500056EB090678C080410130BDE8F0037047BD
:101A60002DE9F003524290E83800B1E880031740B6
:101A7000DB1B18EA020874EB080419EA020975EB8B
:101A8000090538C090E8780091E8820311408B4145
:101A90001740BC4118EA020875EB080519EA02096B
:101AA00076EB090678C080414042BDE8F0037047FC
:101AB0002DE9F00152424FF0030890E8300091E820
:101AC000C000A31B1340E41AF618EB1B1340ED1AD9
:101AD000FF1830C0C0C1B8F10108EED104680E682B
:101AE000A31B1340E41AF61804600E60BDE8F00171
:101AF000704700BF00B592EC070AB1E8005E07EE40
:101B0000101A56EC102A58EC117AA9FB0250AAFBC5
:101B10000234E9FB6603EBFB624340EC145AAAFB78
:101B20000605ECFB6235E9FB6740E9FB6830EEFB3C
:101B30006250AAFB0721EAFB6851EBFB680112EE39
:101B4000108AEBFB6632ECFB6652EAFB6802EBFBA9
:101B5000681243EC154AA9FB084312EE908AE9FB90
:101B60006803EAFB6813EBFB6823EBFB6754EEFBAF
:101B7000660413EE108AE9FB6814EAFB6824EBFBA9
:101B8000683406EE105A17EE109A99E8000CACFB78
:101B9000076511EE909AECFB6915EEFB6925EAFBEF
:101BA0006935EBFB694510EE109AEAFB6906EBFB21
:101BB000691612EE109AECFB6926EEFB6936EAFB19
:101BC0006946EBFB695610EE909AAAFB0987EBFB7E
:101BD000692712EE909AECFB6937EEFB6947EAFB46
:101BE0006957EBFB696711EE109AEEFB6918EAFB87
:101BF0006928EBFB693813EE109AECFB6948EEFBA1
:101C00006958EAFB6968EBFB697800BD2DE9F04F84
:101C100007EE900AFFF76EFF17EE909AA9EC054ABF
:101C200089E8FF01BDE8F08F00B591E8805FA7FB70
:101C30000750A7FB0834E7FB6803E7FB694340EC68
:101C4000145AA7FB0905E7FB6A35E8FB6840E7FB88
:101C50006A30E7FB6B50A8FB0921E7FB6B51E7FB00
:101C60006C01E8FB6932E8FB6A52E7FB6C02E7FBB8
:101C70006E1243EC154AA8FB0A43E8FB6B03E7FB33
:101C80006E13E8FB6E23E9FB6954E8FB6B04E8FB89
:101C90006C14E8FB6E24E9FB6E3406EE105AA9FBC7
:101CA0000A65E8FB6C15E9FB6C25E9FB6E35EAFB80
:101CB0006E45E9FB6A06E9FB6B16E9FB6C26EAFB5D
:101CC0006C36EAFB6E46EBFB6E56A9FB0B87EAFB14
:101CD0006B27EAFB6C37EBFB6C47EBFB6E57ECFBBF
:101CE0006E67EAFB6A18EAFB6B28EBFB6B38EBFBD1
:101CF0006C48ECFB6C58ECFB6E68EEFB6E7800BD3C
:101D00002DE9F04F07EE900AFFF78EFF17EE909A3D
:101D1000A9EC054A89E8FF01BDE8F08F2DE9F0073D
:101D200091E8F807B2E802105B1854EB0C04B2E833
:101D300002104D4156EB0C06B2E802104F4158EB31
:101D40000C08B2E8021059EB01095AEB0C0A80E8C2
:101D5000F80780410130BDE8F00770472DE9F00732
:101D600091E8F807B2E802105B1A74EB0C04B2E8D1
:101D700002108D4176EB0C06B2E802108F4178EB31
:101D80000C08B2E8021079EB01097AEB0C0A80E842
:101D9000F80780414042BDE8F00770472DE9F007A1
:101DA000524290E87800B1E880071740DB1918EA42
:101DB000020854EB080419EA020955EB09051AEA6E
:101DC000020A56EB0A0678C090E87800B1E880076E
:101DD00017407B4118EA020854EB080419EA02098B
:101DE00055EB09051AEA020A56EB0A0678C080414B
:101DF0000130BDE8F00770472DE9F007524290E846
:101E00007800B1E880071740DB1B18EA020874EB82
:101E1000080419EA020975EB09051AEA020A76EBC9
:101E20000A0678C090E87800B1E880071740BB4107
:101E300018EA020874EB080419EA020975EB0905AF
:101E40001AEA020A76EB0A0678C080414042BDE8F1
:101E5000F00770472DE9F00152424FF0040890E876
:101E6000300091E8C000A31B1340E41AF618EB1BE6
:101E70001340ED1AFF1830C0C0C1B8F10108EED10F
:101E8000BDE8F001704700BF00B592EC080AB1E868
:101E9000805707EE101A53EC102A56EC114AA7FB94
:101EA0000251A8FB020BE7FB6310E9FB62B041ECB7
:101EB000145AA8FB0351EAFB6201E7FB64B5E7FB98
:101EC0006605E8FB661505EE10BAA9FB03B6EAFB4A
:101ED0006316ECFB6356E8FB640BE9FB641BEAFB4F
:101EE000645BECFB646B05EE900AACFB023012EE17
:101EF000104AEEFB6250E9FB6460EAFB64B0E7FB6A
:101F00006431E8FB645112EE904AE8FB6461E9FB3E
:101F100064B1EAFB640106EE103AA7FB043213EE4B
:101F2000104AE7FB6462E8FB64B2E9FB6402EAFB87
:101F3000641211EE904AE9FB6453EAFB646313EE0A
:101F4000904AE7FB64B3E8FB6403E9FB6413EAFB34
:101F5000642306EE905A17EE109A99E8000610EEE8
:101F6000108AA9FB0854EAFB68B412EE108AECFB55
:101F70006804EEFB6814E9FB6824EAFB683410EEA1
:101F8000908AEEFB6865E9FB68B5EAFB680512EE2E
:101F9000908AECFB6815EEFB6825E9FB6835EAFBE7
:101FA000684507EE106A11EE108AAEFB0876E9FB71
:101FB0006806EAFB681613EE108AECFB6826EEFB57
:101FC0006836E9FB6846EAFB685611EE908AECFB3E
:101FD00068B7EEFB6807E9FB6817EAFB682713EEB2
:101FE000908AECFB6837EEFB6847E9FB6857EAFB31
:101FF000686700BD2DE9F04F07EE900AFFF744FF38
:1020000017EE908A07EE90BAA8EC084A88E8FF001D
:10201000BDE8F08F00B591E89857A3FB0352A3FBEE
:102020000401E3FB6420E3FB671042EC145AA3FBBA
:102030000752E3FB6802E4FB6415E3FB6805E3FB7E
:102040006925A4FB07B6E3FB6926E3FB6A56E4FBBC
:10205000670BE4FB682BE3FB6A5BE3FB6C6B40EC18
:10206000151AA4FB0810E4FB6950E3FB6C60E3FB6A
:102070006EB0E7FB6721E4FB6951E4FB6A61E3FBB7
:102080006EB1E4FB6E0106EE102AA7FB0832E4FBFA
:102090006A62E4FB6CB2E4FB6E02E7FB6E12E7FBE4
:1020A0006853E7FB6963E4FB6CB3E7FB6C03E7FB96
:1020B0006E13E8FB6E2306EE905AA7FB0954E7FB6C
:1020C0006AB4E7FB6C04E8FB6C14E8FB6E24E9FBE4
:1020D0006E34E8FB6865E7FB6AB5E8FB6A05E8FB78
:1020E0006C15E9FB6C25E9FB6E35EAFB6E4507EEE6
:1020F000106AA8FB0976E8FB6A06E9FB6A16E9FBA9
:102100006C26EAFB6C36EAFB6E46ECFB6E56E8FB8F
:1021100069B7E9FB6907E9FB6A17EAFB6A27EAFB8B
:102120006C37ECFB6C47ECFB6E57EEFB6E6700BD4B
:102130002DE9F04F07EE900AFFF76CFF17EE908A3B
:1021400007EE90BAA8EC084A88E8FF00BDE8F08FD7
:1021500030B44FF0000310F8014B11F8015B013A65
:1021600084EA050443EA0403F5D1A3F101034FEA2D
:10217000D37030BC704700BF4FF0000310F8012B44
:10218000013943EA0203F9D1A3F101034FEAD37005
:10219000704700BF30B411F8014B12F8015B6C407E
:1021A00000F8014B013BF6D130BC70472DE9F0033C
:1021B00091E8F803B2E802105B1854EB0C04B2E8A3
:1021C00002104D4156EB0C0692E806104F4158EBB9
:1021D000020859EB0C098941013B74F1000475F1C7
:1021E000000576F1FF3677F1FF3778F1FF3879F1A6
:1021F000FF3951F1000113EBD17354F1000455F193
:1022000000054E414F4158EB010859EB010980E8A8
:10221000F803BDE8F00370472DE9F00391E8F803F7
:10222000B2E802105B1A74EB0C04B2E802108D41A4
:1022300076EB0C0692E806108F4178EB020879EBFA
:102240000C09894113EBD17354F1000455F10005D9
:102250004E414F4158EB010859EB010980E8F80362
:10226000BDE8F003704700BF2DE9F04F07EE900A7C
:10227000FFF740FC5AEC359AB9EB05097AEB060AF0
:10228000B84171EB080172F1000273F1000374F1BF
:1022900000046BEB0B0B491972417B4154EB0804B2
:1022A0004BF1000557EC146A15EE108ABEEB0E0ECA
:1022B00059EB02095AEB030A604169415EF1000ED5
:1022C00096419F4178EB040879EB05097AF1000A01
:1022D00070F1000B71F1000C6EF1010E16EBDE7661
:1022E00057F1000758F1000859EB0E095AEB0E0A96
:1022F0005BEB0E0B5CEB0E0C17EE900A80E8C01F38
:10230000BDE8F08F2DE9F04F07EE900AFFF78CFC47
:10231000B0E700BF2DE9F00791E8F807B2E8021036
:102320005B1854EB0C04B2E802104D4156EB0C065E
:10233000B2E802104F4158EB0C08B2E8021059EB1A
:1023400001095AEB0C0A8941B3F1FF3374F1FF34F0
:1023500075F1FF3576F1000677F1000778F1000896
:1023600079F101097AF1FF3A51F100015B184C4112
:102370004D4156F1000657F1000758F1000859EB9E
:10238000D1795AEB010A80E8F807BDE8F0077047F9
:102390002DE9F00791E8F807B2E802105B1A74EB38
:1023A0000C04B2E802108D4176EB0C06B2E8021084
:1023B0008F4178EB0C08B2E8021079EB01097AEB57
:1023C0000C0A89415B184C414D4156F1000657F10A
:1023D000000758F1000859EBD1795AEB010A80E85F
:1023E000F807BDE8F007704718EB040859EB05093A
:1023F0005AEB060A5BEB070B5FF0000C4CF1000C8C
:1024000018EB050859EB06095AEB070A5BEB070BBB
:1024100050EB0C005FF0000C51EB0C0152EB0C0286
:1024200063414CF1000CB8EB070879F100097AF12F
:10243000000A7BEB040BA841B141A241B3416CF10E
:10244000000CBBEB050BB041B941AA41BB416CF19B
:10245000000C6FEAEC74B8EB040879EB04097AEB32
:10246000040A7BF1000B70F1000071F1000172EBC6
:10247000D472A3416CF1000C18EBEC7859EBEC79B9
:102480005AEBEC7A5BF1000B50F1000451F10005BE
:1024900052EBDC7653EBEC774CF1000C18EBEC7064
:1024A00059EBEC715AEBEC725BF1000354F1000450
:1024B00055F1000556EBDC7657EBEC77704700BF23
:1024C0002DE9F04F07EE900AFFF7DEFC59EC168A73
:1024D00017EE10AAFFF788FF59EC148A5BEC15AAD7
:1024E000FFF782FF17EE908A88E8FF00BDE8F08FC3
:1024F0002DE9F04F07EE900AFFF78CFD59EC168A94
:1025000017EE10AAFFF770FF59EC148A5BEC15AABE
:10251000FFF76AFF17EE908A88E8FF00BDE8F08FAA
:102520002DE9F00791E8F807B2E802105B1854EBC8
:102530000C04B2E802104D4156EB0C06B2E8021052
:102540004F4158EB0C08B2E8021059EB01095AEB65
:102550000C0A4FF0260261EB010122EA01015B182F
:1025600054F1000455F1000556F1000657F100073B
:1025700058F1000859F100095AF1000A61EB010114
:1025800022EA01010B4480E8F807BDE8F007704734
:102590002DE9F00791E8F807B2E802105B1A74EB36
:1025A0000C04B2E802108D4176EB0C06B2E8021082
:1025B0008F4178EB0C08B2E8021079EB01097AEB55
:1025C0000C0A4FF0260261EB010102EA01015B1ADD
:1025D00074F1000475F1000576F1000677F100074B
:1025E00078F1000879F100097AF1000A61EB010144
:1025F00002EA0101A3EB010380E8F807BDE8F00758
:10260000704700BF2DE9F04F07EE900AFFF73CFC42
:102610004FF0260C59EC148A4FF0000AE0FB0C8AAC
:10262000E1FB6C9A51EC150AE2FB6CA0E3FB6C0138
:1026300053EC162AE4FB6C12E5FB6C235EEC174AA4
:10264000E6FB6C34E7FB6CB40CFB04F418EB0404FD
:1026500059F100055AF1000650F1000751F1000848
:1026600052F1000953F1000A5BF1000B60EB00002E
:102670002CEA000004448EE8F00FBDE8F08F00BFA4
:102680002DE9F04F07EE900AFFF7C4FCC0E700BF4A
:102690002DE9F00391E8F8134FF4EE31BF39002231
:1026A000E3FB6123E4FB6134E5FB6145E6FB615636
:1026B000E7FB6167E8FB6178E9FB6189ECFB619C02
:1026C0004FF0260101FB0CFC12EB0C0253F100034E
:1026D00054F1000455F1000556F1000657F10007CA
:1026E00058F1000859F100096CEB0C0C21EA0C01BF
:1026F0000A4480E8FC03BDE8F00370472DE9F003CD
:1027000090E8F8134FEAEC7202F013022CF0004C40
:1027100002F11301591854F1000155F1000156F16D
:10272000000157F1000158F1000159F100015CF17D
:1027300000014FEAE17101F0130111445B1854F1FB
:10274000000455F1000556F1000657F1000758F155
:10275000000859F100094CF1000C2CF0004C80E805
:10276000F813BDE8F00370472DE9F04F90E8F00F43
:1027700000F140004FF0040E59E0F0B4826BC36BDF
:1027800004680525242687593C444FEA724787EAA6
:10279000F24787EA92273C4442684FEAF21787EAF9
:1027A000B24787EAD2073C4440F8044B032D08BFE8
:1027B0006FF01B0687593A444FEA734787EAF3479D
:1027C00087EA93273A4443684FEAF31787EAB34707
:1027D00087EAD3073A4440F8042B87593B444FEA31
:1027E000744787EAF44787EA94273B4444684FEAF2
:1027F000F41787EAB44787EAD4073B4440F8043B20
:10280000013DC0D1A0F13C00076A3C444FEA724749
:1028100087EAF24787EA92273C4402684FEAF217B8
:1028200087EAB24787EAD2073C44C463F0BC4FF062
:10283000020288EA781C8CEAF84C0BEBBC1C8AEA92
:10284000090303EA080383EA0A039C4450F8043BA3
:102850009C4451F8043B9C44674444EA050B0BEA52
:10286000060B04EA05034BEA030BE34484EAF42372
:1028700083EA34530BEBB30B87EA771C8CEAF74CF3
:102880000AEBBC1C89EA080303EA070383EA09038D
:102890009C4450F8043B9C4451F8043B9C446644DF
:1028A0004BEA040A0AEA050A0BEA04034AEA030AA5
:1028B000E2448BEAFB2383EA3B530AEBB30A86EA42
:1028C000761C8CEAF64C09EBBC1C88EA070303EA89
:1028D000060383EA08039C4450F8043B9C4451F8E7
:1028E000043B9C4465444AEA0B0909EA04090AEAE4
:1028F0000B0349EA0309E1448AEAFA2383EA3A53DB
:1029000009EBB30985EA751C8CEAF54C08EBBC1C95
:1029100087EA060303EA050383EA07039C4450F8A9
:10292000043B9C4451F8043B9C44644449EA0A0833
:1029300008EA0B0809EA0A0348EA0308E04489EABE
:10294000F92383EA395308EBB30884EA741C8CEA50
:10295000F44C07EBBC1C86EA050303EA040383EA94
:1029600006039C4450F8043B9C4451F8043B9C44AF
:10297000E34448EA090707EA0A0708EA090347EABD
:102980000307674488EAF82383EA385307EBB30761
:102990008BEA7B1C8CEAFB4C06EBBC1C85EA04032F
:1029A00003EA0B0383EA05039C4450F8043B9C4470
:1029B00051F8043B9C44E24447EA080606EA09064B
:1029C00007EA080346EA0306664487EAF72383EA30
:1029D000375306EBB3068AEA7A1C8CEAFA4C05EB0D
:1029E000BC1C84EA0B0303EA0A0383EA04039C4445
:1029F00050F8043B9C4451F8043B9C44E14446EAB3
:102A0000070505EA080506EA070345EA03056544E4
:102A100086EAF62383EA365305EBB30589EA791C87
:102A20008CEAF94C04EBBC1C8BEA0A0303EA0903A9
:102A300083EA0B039C4450F8043B9C4451F8043B4C
:102A40009C44E04445EA060404EA070405EA060358
:102A500044EA0304644485EAF52383EA355304EB2E
:102A6000B304013A7FF4E5AEA0F14000BEF1010EDF
:102A70007FF483AEA0F1400C9CE80F0000194919C7
:102A80009219DB19ACE80F009CE80F004044494460
:102A900052445B44ACE80F00BDE8F08F70B5174CB2
:102AA0006078002823D10120607004F029F96FF0CC
:102AB000270528B904F03AF910B904F041F920B11A
:102AC0000F486060A570082010E004F0EEF840B9EF
:102AD00004F0F5F828B904F009F910B904F01AF96E
:102AE00030B1074831306060A5700420E07070BDDF
:102AF00040F23F11742003F067F90000000000204D
:102B0000B8700000064A00B592F90320904201DB3C
:102B1000104600BD00F008F80249085600BD00004C
:102B200000000020AA7000000246134810B590F97A
:102B300003309A4201DB0D2010BD90F902309A4219
:102B400001DC002010BD01B10121D41A4368185DD9
:102B50000A4C24569442F5D0084C08443F34C0B285
:102B6000D2B2A342EED10029ECD0012A01D0022A30
:102B7000E8D1401CC0B210BD00000020AA700000C7
:102B80002DE9F0411C4690460D4606466FF01507AC
:102B9000042804D81CB103F061FEA84202D83846CC
:102BA000BDE8F0810548424650F8260018B140576C
:102BB000824200DD024622700020F1E7240A002054
:102BC00070B50D4604000CD094F828600021022056
:102BD000092D6ED2DFE805F008113636667189A638
:102BE00094004FF4CB71F7E094F8260004287BD0D2
:102BF0000328FCD040F2A111EEE094F8260004284E
:102C000004D0032802D040F2A511E5E0052084F8A5
:102C1000260084F8291094F82400B8BB002120462F
:102C200003F07DFE2078012807D0D4E9040100BF1D
:102C3000C4E906010021226A48E094F8270001F067
:102C4000F1FAF5E794F82610042904D0032902D0FC
:102C500040F2C311C0E094F8242022B1214630464E
:102C600003F09DFEB0E0042900D0012084F8260086
:102C7000226A022D0BD006213046904700286DD0E5
:102C8000007800286AD040F2DD11A5E034E005218B
:102C900030469047002870D0007800286DD04FF45F
:102CA000EC7199E094F82600052803D04FF4F271F6
:102CB00092E080E00221226A08E094F826000528CC
:102CC00002D04FF4F57187E0226A01213046904727
:102CD0000146204603F0CEFD022875D0E8B3012856
:102CE0006CD040F22A2177E070E094F826000528A5
:102CF00002D04FF4F8716FE0BDE8704000F09EB86C
:102D000094F82600052802D040F2F51164E0226A0A
:102D10000A21304690470146204603F0ABFD4FF4B0
:102D2000FC7159E094F82620052A07D094F8253044
:102D30000BB1032A02D04FF4FE714DE094F8242029
:102D40002AB121463046BDE8704003F028BE94F811
:102D500029209AB184F8291001E032E034E084F8A7
:102D60002600226A082130469047002837D0007894
:102D7000002834D04FF402712EE030E094F8252082
:102D80005AB184F8251094F82700214603F0C5FDB8
:102D9000002824D140F20D211EE084F82600226A8A
:102DA000072130469047002819D00078002816D017
:102DB0004FF4057110E040F219210DE00421226A60
:102DC00084E70321226A81E7002D08D103F09BFEEE
:102DD000002804D040F233216A2002F0F5FF70BDD4
:102DE000002819D003781349134A13B1012B0ED0D0
:102DF00011E00379012B00D06BB943790BB1012BA2
:102E000009D18368643B8B4205D2C0680EE0037928
:102E1000012B02D00BB10020704743790BB1012B7D
:102E2000F9D1C368643B8B42F5D280689042F2D8F6
:102E3000012070473D860100FF3F420F10B5054C51
:102E4000206810B1804700202060BDE8104001F0EC
:102E500021BD0000080000202DE9F0410E460500CC
:102E600004D000F047F8074600240BE06FF015008F
:102E7000BDE8F081204600F043F890F8260030B11C
:102E8000641CE4B2BC42F5D36FF00B00F0E72746B8
:102E9000FF2CF9D0204600F033F8044603F09AFDE9
:102EA00084F828702146084801F0CCFC84F82700FB
:102EB000202806D00120256284F8260037700020E3
:102EC000D6E76FF02200D3E7C12B000010B58207D0
:102ED00002D06FF00D0010BD054A1170506028B18E
:102EE00001EB41010A01002103F0F9FF002010BDB0
:102EF0000C00002001480078704700000C00002002
:102F000005490A78904201D300207047496800EBD8
:102F1000400001EB001070470C0000200E4910B576
:102F200091F83200202812D091F83200A1F5806289
:102F3000C0EBC00002EB800091F832104068C1EB9A
:102F4000C10152F82120BDE810400421104740F68D
:102F5000BC01702002F038FF380E002070B5054625
:102F6000202A28D019481A4C00EB831C03EB43039A
:102F70000CEB42002344202922D00CEB4101407885
:102F80004C784870204601460CEB41009142057098
:102F90004078F8D193F82220202A1ABF0CEB420285
:102FA000547083F8214020220CEB410C8CF8012056
:102FB00083F8221070BD4FF42671702002F004FFD8
:102FC00093F82040407883F82000DBE7B80D00201C
:102FD000380E00202DE9FF4F8DB015460C4601F04C
:102FE00041FE284420F07F4008902168081A000222
:102FF000C11700EB11600012002800F3F080DDF82B
:103000004080CD4808EB48010844099090F82050D2
:103010002020CA4E0DF1180A0DF11C098DF8180078
:10302000202D1CBFC64800EB881B38D0C5EBC5005F
:1030300006EB800000F10801C0682768381A00021A
:10304000C21700EB1260001229D4E08900B3C889CE
:10305000F0B90868039002F01DFDB0F5C67F08BF07
:103060000D200BD0A0F54070563808BF1C2005D0AD
:10307000A0F500709F3814BF00203220411C039837
:10308000381A0002C21700EB12600012884206DBF9
:103090000BEB45008AF800504578202DC6D19AF8F0
:1030A000000089F80000202D1CBFA54800EB881BFC
:1030B00000F03E81C5EBC50006EB80076168D7F8DC
:1030C000088007F10800A8EB01010902CA1701EB0B
:1030D0001261091227D4C089002800F02981E089F3
:1030E000002840F02581D4F800A002F0D3FCB0F510
:1030F000C67F08BF0D200BD0A0F54070563808BF22
:103100001C2005D0A0F500709F3814BF002032208D
:10311000411CA8EB0A000002C21700EB126000126B
:10312000884280F2058189F80050387E217C8842EF
:1031300006D90BEB45004578202DBBD100F0F8B83F
:103140009DF81C00C0EBC00006EB8000C18AC5687A
:10315000E1BBE189D1B3876802F09CFCB0F5C67F82
:1031600008BF0D200BD0A0F54070563808BF1C20BA
:1031700005D0A0F500709F3814BF00203220411CFC
:10318000E81B0002C21700EB1260001288421DDA31
:1031900002F080FCB0F5C67F08BF0D200BD0A0F573
:1031A0004070563808BF1C2005D0A0F500709F382D
:1031B00014BF002032209DF81C10401CC1EBC1013F
:1031C00006EB81018968084420F07F450898281A99
:1031D0000002C11700EB11600012002803DD11B0DE
:1031E0000020BDE8F08F2068A84202D9A168491CE0
:1031F000A16061680DF1180A081A284425F07F4182
:1032000020F07F40C4E9001010980B9009980DF150
:103210001C0890F8205020208DF81800202D3CD05C
:1032200047490B9801EB801BC5EBC50006EB8000FE
:1032300000F10801C0682768381A0002C21700EBC5
:103240001260001229D4E08900B3C889F0B9D1F81E
:10325000009002F01FFCB0F5C67F08BF0D200BD018
:10326000A0F54070563808BF1C2005D0A0F50070AE
:103270009F3814BF00203220411CA7EB0900000238
:10328000C21700EB12600012884206DB0BEB450010
:103290008AF800504578202DC6D19AF8000088F8A9
:1032A00000000B98202D1CBF254901EB801B3FD04F
:1032B000C5EBC50006EB80076068D7F8089007F1FA
:1032C0000801A9EB00000002C21700EB1260001217
:1032D00022D4C88960B3E08950BBD4F800A002F0C2
:1032E000D9FBB0F5C67F08BF0D200BD0A0F540700C
:1032F000563808BF1C2005D0A0F500709F3814BFB9
:1033000000203220411CA9EB0A000002C21700EB8A
:103310001260001288420BDA88F80050387E217C57
:1033200088427FF60DAF0BEB45004578202DBFD1CD
:1033300011B00120BDE8F08F380E0020380A0020BF
:10334000B80D00202DE9F84F0F46064601EB470067
:103350004B4999460844924690F82040202010702E
:10336000A1F58068202C1CBF464800EB871B38D095
:10337000C4EBC40008EB800000F10801C0683568A8
:10338000281A0002C21700EB1260001229D4F0893B
:1033900000B3C889F0B90868009002F07BFBB0F573
:1033A000C67F08BF0D200BD0A0F54070563808BF6F
:1033B0001C2005D0A0F500709F3814BF00203220DB
:1033C000411C0098281A0002C21700EB126000127C
:1033D000884206DB0BEB44008AF800404478202C3E
:1033E000C6D19AF8000089F80000202C1CBF25489F
:1033F00000EB871A40D000BFC4EBC40008EB800785
:103400007068BD6807F10801281A0002C21700EBB6
:103410001260001222D4C88970B3F08960BBD6F85C
:1034200000B002F037FBB0F5C67F08BF0D200BD00F
:10343000A0F54070563808BF1C2005D0A0F50070DC
:103440009F3814BF00203220411CA5EB0B00000266
:10345000C21700EB1260001288420DDA89F80040B2
:10346000387E317C884202D80020BDE8F88F0AEB14
:1034700044004478202CBFD10120BDE8F88F000023
:10348000380E0020B80D00202DE9F74F98B01546F2
:1034900001F0AAFE044602F025F906461998012813
:1034A00018BF022805D040F692114FF0700002F0CC
:1034B0008BFCF94901200860F84989680860002000
:1034C0008DF846000A90401E0B90F549C5EBC500EB
:1034D00001EB800101F10800896990E80D100CAF43
:1034E000109187E80D1003F017FBBDF83E809DF8A2
:1034F0003C1002464144491CEA4B08449A4254D8C5
:10350000E94DA94258DC6A4291425DDB591C814277
:10351000DCBF00F5F700A0F1F85005DD0028BCBFC6
:10352000A0F5F70000F1F8501490E048B8F1000F52
:10353000808BADF8440014BF4FF0010A4FF0000A31
:1035400002F0CAFB1690BAF1000F08D0D748C06A43
:10355000B0F1FF3F02BF16980028012701D04FF0BD
:10356000000702F097FAB0F5C67F08BF0D200BD018
:10357000A0F54070563808BF1C2005D0A0F500709B
:103580009F3814BF002032204FF00009CB46139023
:10359000464536D9149BDFF80C936FEA060C694652
:1035A00017AA03EB0C004B4504D940F29E51702042
:1035B00002F00AFCAC4504DD40F29F51702002F09D
:1035C00003FCBB4B9C4504DA4FF4B461702002F05D
:1035D000FBFBB84B8342DCBF00F5F700A0F1F850CD
:1035E00005DD0028BCBFA0F5F70000F1F85001F0A0
:1035F00055FB00980C9920F07F400090081A20F0AD
:103600007F49002F18BFDDF84CB005D19DF844006C
:10361000002818BF4FF0020BB4F1807F08D00C983F
:10362000001B0002C11700EB11600012012802DA32
:103630000320189D0DE057B19C4890F8300030B140
:103640009DF8440010F1000B18BF4FF0020B254607
:10365000002083440C98A0EB090020F07F41481E15
:1036600020F07F40421B1202D31702EB13621212AA
:103670005A4504DBB9F1000F18BF0C912DE0B9F1E8
:10368000000F05D09DF8450020B902F021F808B1DF
:10369000AFB90CE02FB99DF84400002818BFABF17A
:1036A000020B4FF000098DF844904E4607E09DF85C
:1036B000440020B100208DF84400ABF1020B0C98BF
:1036C000A0EB0901481E20F07F40421B1202D317D5
:1036D00002EB136212125A457EDB744AD26A891ACF
:1036E0000902CB1701EB1361169B09123BB9B2F12A
:1036F000FF3F1CBF139A9142B8BF002100DB01219C
:103700003AEA010168D1199905464FF0000905917F
:1037100001F02EFC281A0002C11700EB11604FEADD
:10372000202B02F0B7F9B0F5C67F08BF0D200BD0F3
:10373000A0F54070563808BF1C2005D0A0F50070D9
:103740009F3814BF002032200B3058451FDD0598EC
:10375000012801D047B112E0B4F1807F1CD140F6BE
:103760001311702002F030FBB4F1807F07D0601B92
:103770000002C11700EB11600012042804DD2C4682
:10378000204601F01BFC07E0002862DC04E02C4628
:10379000204601F013FCD146B4F1807F54D00C9840
:1037A0000D9A001B121B20F07F4022F07F4201285F
:1037B0004FD3B0F5000F98BFB2F5000F49D820469F
:1037C00003F0AAF91499384A0D1A4FF0000BAA1AFF
:1037D0007BF1000218D300E03BE0334B421AD31ACE
:1037E0007BF1000310D32F4BAB423EBFC0F59020BE
:1037F00000F1F450451807D393422ED2C1F5902121
:1038000001F1F45108444542284FB87F50B319984C
:10381000012805D0022001F021FE012001F01EFE4A
:10382000B0452BD2A5EB06014FF0020001F060FD80
:1038300088B3B8F1000F1CBFA5EB0801012043D0ED
:1038400001F056FD38B33FE040F63121702002F020
:10385000BBFA1BB00020BDE8F08F40F605317020A8
:1038600002F0B2FAB04534BF304640461E30A8429E
:10387000CDDB40F64521702002F0A6FA1CD9A5EB5D
:103880000801012001F034FD28B1002E1CBFA91B46
:10389000022019D0D4E742E00805004014000020BF
:1038A000380A0020FF7F841E0040420F380E00209F
:1038B00000C0BDF00080841E56EA080004D040F627
:1038C0007611702002F080FA2946002001F010FDE8
:1038D00028B30126BAF1000F04BF97F83000002882
:1038E00002D0B9F1000F24D0F86AB0F1FF3F04D044
:1038F00002F0D6F84FF0FF30F862B9F1000F1CD09B
:103900001398201A20F07F41052001F0F1FC60B3EC
:1039100097F83000002808BF87F8306015E00220D3
:1039200001F09CFD012001F099FD1BB00020BDE8D5
:10393000F08FF86AB0F1FF3F12D097F8300020B155
:10394000052001F08BFD87F830B0A5EB0800A0F151
:10395000190100290EDC40F66E21702002F034FAC5
:1039600002F0BAF801F004FBC6E74FF43E71702094
:1039700002F02AFA032001F0BBFCB8B10E488068BF
:10398000C0F800B00D48C0F800B00DF1280898E864
:103990007F1038607960BA60FB603C617D61BE6118
:1039A000C7F81CC01BB00120BDE8F08F40F676219F
:1039B000702002F009FA0000140000200805004001
:1039C0002DE9FF4F0D46144606464FF0000A2A899E
:1039D0004168504662F31F40AA7AD14662F3070954
:1039E000EA7A83B062F30F292A78C4F800A062F360
:1039F0001749C4F804A0C4F81090C4E902109D4F00
:103A00007068A0FB0789306803F086F810EB0801A6
:103A10004AEB090228784FEA6709C9F1000B70B137
:103A2000E08994F81180C043D5F804A004F10C0299
:103A300048457CDD40F29F51702002F0C5F9DFF867
:103A400038C2D5E9040311EB0C0A42F1000CB0EBCB
:103A50000A0A73EB0C0C72D2411A73EB02016ED39B
:103A6000B0EB0806B7422BD8E089A6F1F458A8F5C8
:103A70009028C143814A08EB010042452BD34945B8
:103A8000D8DC594566DB8742DCBF00F5F700A0F1C2
:103A9000F85005DD0028BCBFA0F5F70000F1F85094
:103AA0006A4601A901F0FAF8E0899DF80010301A81
:103AB000401A401EB84202D3A068401CA06046468F
:103AC000E0896E4BC1436D6894F81180701804F161
:103AD0000C029E4204D940F29E51702002F074F90B
:103AE0004945A7DC594535DB8742DCBF00F5F700C7
:103AF000A0F1F85005DD0028BCBFA0F5F70000F1EB
:103B0000F850214601F0CAF8206820F07F41701972
:103B1000401C2160B8F1000F08BF7A3004D0B8F122
:103B2000010F08BF48303AD101F09CF801E00EE0E7
:103B300005E020F07F40606007B0BDE8F08F30689E
:103B4000401E20F07F40206000F57A70F3E70146C8
:103B5000584504DA4FF4B461702002F035F9874219
:103B6000DCBFA1F1F450A0F5902005DD0028BCBF1A
:103B700001F1F45000F59020214601F08FF8206803
:103B8000B8F1000F20F07F410AF10100216008BF69
:103B90007A3009D0B8F1010F08BF483004D040F2A4
:103BA0003961702002F010F901F05CF820F07F41DB
:103BB0006160B4F80E9001AA69464846376801F082
:103BC0006DF801F08FFD01F04DF880462C4890F81B
:103BD000321020292AD0C068401D20F07F4000BF4D
:103BE000D4E90021891A014421F07F41C4E9000190
:103BF0003168814202D9A068401CA06032682869FF
:103C00002146069BFFF7E6F900281CBF07B0BDE878
:103C1000F08FD4E90010401A3168216031680844FF
:103C200020F07F40606007B0BDE8F08F0937B9F140
:103C3000000F16D002F050F898B901F02BFFB0F544
:103C4000C67F08BF0D200BD0A0F54070563808BFC6
:103C50001C2005D0A0F500709F3814BF0020322032
:103C600007440098804584BFA8EB0000074427F074
:103C70007F40B5E70080841E0040420FFF7F841E16
:103C8000380E002070B51E4D95F83200202818BF60
:103C900070BD95F8312002EB4200284490F8204096
:103CA000202C27D0174B03EB821101EB44014978FC
:103CB00080F82010FF2085F8290085F83240214641
:103CC000022000F091F8002085F82800A8770E491E
:103CD000C4EBC40001EB8000007E002808BF02F0A6
:103CE000EFFB002009494968002908BF70BDBDE805
:103CF0007040084740F23231702002F065F8000051
:103D0000380E0020B80D0020380A002014000020D2
:103D10002DE9F05FDFF8C08098F8315005EB4500E1
:103D2000404490F82140202C08BFBDE8F09FDFF808
:103D3000ACB0DFF8ACA0AAF560790AEB85170726CE
:103D400017F8140001280ED0042808BF02260AD054
:103D500005280CBF0326062805D040F6DD014FF0EC
:103D6000700002F031F8BBF1000F18BFAFF3008014
:103D7000EFF3108072B607EB44014A7805EB45017A
:103D8000414481F8212091F82220A24204BF202240
:103D900081F82220C0B12A462146012000F024F8F3
:103DA000C4EBC40109EB810059F821204068314679
:103DB000904798F8315005EB4500404490F8214079
:103DC000202CBAD1BDE8F09F0648002818BFAFF3F9
:103DD000008062B6DFE70000380E0020000000001F
:103DE000B80D002000000000DFF858C010B5002317
:103DF0000CEB821C07281FD2DFE800F00505050543
:103E00000404040001230CF81100002B08BF10BDAE
:103E100002EB42020C48024492F8220020280EBF16
:103E200082F821100CEB4000417020200CEB410384
:103E3000587082F8221010BD40F26E21702001F0FF
:103E4000C3FF0000B80D0020380E00202DE9F05F00
:103E50000F468046DFF860A101EB47005044B8F1FF
:103E6000010F90F82040254618BFB8F1020F05D089
:103E700040F6AC214FF0700001F0A6FF4FF0000BB0
:103E8000202D42D09AF81E000026002808BF0226E6
:103E900001F06EF8DFF824C1C4EBC4010CEB810122
:103EA0008A68C968121A091A22F07F4221F07F41FC
:103EB000964299BFB2F5000FB1F5000F404A02EBF0
:103EC000871920D9224609EB42014C78202C12D0C8
:103ED000C4EBC4010CEB81018B68C9681B1A091A79
:103EE00023F07F4321F07F419E429CBFB3F5000F3A
:103EF000B1F5000FE6D8202A05D03B46202104204A
:103F0000FFF72CF80446AC4216D12E48002818BF03
:103F1000AFF3008001F02CF803469AF83300202814
:103F20000DD0DAF80800991C081A0002C11700EB3E
:103F300011600012002802DD0020BDE8F09F202D56
:103F400014D02A4641461846FFF79EFA00281EBFA5
:103F50008AF833500220BDE8F09F3B462A462021D4
:103F60000420FEF7FBFF0020BDE8F09FDAF82C00EC
:103F7000B0F1FF3F05D001F093FD4FF0FF30CAF8DC
:103F80002C009AF8300020B1052001F067FA8AF879
:103F900030B0042001F062FA01F0D0FA20208AF853
:103FA000330009488068C0F800B00848C0F800B085
:103FB0000120BDE8F09F0000380E0020380A0020E4
:103FC000B80D00200000000014000020080500408B
:103FD0002DE9F04F694E07468DB096F832008846BD
:103FE000202855D096F8320006F10804C0EBC00036
:103FF000A6F5806909EB800A20208DF8200096F84C
:1040000031000AAA00EB4000304409A990F8205082
:10401000F06802903068384400F040FEDAF80C0096
:104020000999652F084438D3554A0021D21B71EBFA
:10403000010232D32268821A22F07F42B2F5000FC9
:104040002BD820F07F406060304684F8108090F8D4
:1040500031000DF1200A202D1CBF4A4901EB801BC5
:1040600050D000BFC5EBC50009EB80086168D8F8E7
:10407000086008F10800711A0902CA1701EB126101
:1040800009122DD4C08900283CD0E08948B139E01C
:1040900040F67331702001F097FE0DB00120BDE8AD
:1040A000F08F20680C9001F0F5FCB0F5C67F08BFDA
:1040B0000D200BD0A0F54070563808BF1C2005D04D
:1040C000A0F500709F3814BF00203220411C0C98CE
:1040D000301A0002C21700EB12600012884211DA97
:1040E0008AF8005098F81810207C814205D8029870
:1040F00060600DB00220BDE8F08F0BEB4500457805
:10410000202DAFD1052001F0A9F91C4C4FF0FF3054
:10411000606094F831309DF820202021202A03D0BF
:104120000520FEF71BFF04E003EB4300204490F85A
:10413000200094F83120134901EB821194F83220C9
:1041400001EB42014870206838442060FF2084F869
:104150002900607E012805D1E068401E20F07F40E4
:1041600000F0E0FF9DF82000202803D006484078AA
:1041700001F0FEFE0DB00020BDE8F08F380E0020EB
:104180000040420FB80D00201400002070B5244AF2
:1041900092F8321020293AD092F83210A2F58063BA
:1041A000C1EBC10103EB810C92F8311092F8314060
:1041B00001EB4101114491F82010A2F1800505EBBB
:1041C0008414202928D0C1EBC10503EB85052D7E81
:1041D000854284BF04EB41014978F2D8C1EBC101AB
:1041E00003EB8101DCF80C0089681468081A0002EE
:1041F000C11700EB1160001207D402F08DFC04F12E
:104200006501884224BF001B70BD002070BD40F6D0
:104210004531702001F0D8FD4FF0FF3070BD000037
:10422000380E002070B5C0EBC001094800EB8104D6
:1042300008492069A0FB0156A06802F06DFCE18AE4
:10424000227D401C11440844401946F1000170BD14
:10425000380A00200080841EF8B56F4D012605F550
:1042600080646E4AE16A082872D2DFE800F00477C1
:104270009FB1CF44B6BBB1F1FF3F04D101F02CFC9C
:1042800000F076FEE062E08A10B101F025FD80B119
:10429000FFF7F8FCFF2084F827006168B1F1FF3FC9
:1042A00003D0052001F024F840B1607E012810D130
:1042B00009E040F66901702001F086FD40F66E01CC
:1042C000702001F081FDE068401E20F07F4000F08A
:1042D00029FF94F8320094F83210C0EBC00005EBCF
:1042E00080004068C1EBC10155F8212001B00121D7
:1042F000BDE8F040104794F8300058B1B1F1FF3FED
:1043000004D101F0E9FB00F033FEE062002084F804
:104310003000F8BDFFF7B6FC4FF0FF30606094F856
:1043200027008DF800009DF8000090B194F832004D
:1043300094F83210C0EBC00005EB80004068C1EB80
:10434000C10155F8212001B00621BDE8F040104719
:104350005CE040F68501702001F036FDFFF792FC2D
:1043600084F8266001F0B8FC20B1E06AB0F1FF3FAC
:1043700005D009E040F69301702001F025FD01F021
:10438000ABFB00F0F5FDE06294F8320094F83210D7
:10439000C0EBC00005EB80004068C1EBC10155F8DF
:1043A000212001B00021BDE8F040104701F07CF968
:1043B000E08A10B101F090FC28B101F089F90028E1
:1043C00018BF6677F8BD40F69D01702001F0FCFC37
:1043D0001348066090680660F8BD1078BDE8F840A4
:1043E00001F0C6BDFFF74EFC94F8320094F832108D
:1043F000C0EBC00005EB80004068C1EBC10155F87F
:10440000212001B00521BDE8F04010474FF40B61B9
:10441000702001F0D9FC0000380A002014000020B0
:10442000080500402DE9F34F8246ED488DB0006845
:10443000EC4DC005C00D0ED0103840B20028B8BFFA
:1044400000F00F0000F1E020ACBF90F8000490F8FD
:10445000140D40090DD00E984FF0000B0078002885
:1044600018BF012818D040F23B714FF0700001F0E6
:10447000ABFC95F832004FF0010B202807D00E98C6
:10448000007848B140F23771702001F09DFC40F295
:104490003471702001F098FCD34C24B1002140F21B
:1044A0003E70AFF300800020CDE90A00CF49CAEB8F
:1044B000CA0001EB80004FF00109009024B10021F7
:1044C00040F24970AFF30080B9F1000F0AD000BF8D
:1044D00095F831604FF0000885F82980BBF1000F96
:1044E00007D038E0C248002818BFAFF3008062B69A
:1044F000EEE73746012020EA0706BE48402200EBDF
:10450000871100EB861002F070FC24B1002140F20C
:104510005E50AFF3008007EB470106EB46002944ED
:1045200028440A8C028491F8221080F8221024B1C9
:10453000002140F26250AFF3008024B1002140F22C
:104540005370AFF3008095F829008DF818009DF89E
:1045500018000028B2D124B1002140F25D70AFF301
:10456000008006A800F00AFDDDE90601CDE908019A
:10457000334601AA08A80E99FFF722FA24B10021B8
:1045800040F26470AFF300809A4A089902EB8617F4
:1045900001A817F81A20012A18BF022A38D1CDF82D
:1045A0002C80019A029BA2EB010222F07F42A3EB36
:1045B000010121F07F41022A60D3B2F5000F98BFBC
:1045C000B1F5000F5AD84FF0010807AB06AA3146E3
:1045D000FEF7B8FE002859D09DF818109DF81C2051
:1045E00033468A4256D00520FEF7B8FC07EB4A0155
:1045F00048709DF8180020281CBF07EB400080F889
:1046000001A053D0324651465FF00300FFF7ECFBA8
:1046100024B1002140F26970AFF300807648002891
:1046200018BFAFF30080EFF3108972B624B10021F8
:1046300040F26F70AFF3008095F829008DF81800F4
:104640009DF8180000287FF439AF24B1002140F212
:104650007770AFF300809DE88F1000F10800B8F18B
:10466000000F80E88E1051D024B1002140F28470F8
:10467000AFF30080BBF1000F39D11FE03246514645
:104680000420FFF7B1FB4FF00108C1E73246514665
:104690000420BBE7202919BF07EB4100407806EB57
:1046A0004600284408BF90F820009FE706EB46012B
:1046B000294481F820A0CDF82C80A3E70B9810F0B6
:1046C000FF0F14D095F83200202810D124B100211A
:1046D00040F28970AFF3008031460220FFF7B6FB4D
:1046E0000A9020B90E980078E8B101282AD024B1A8
:1046F000002140F2A670AFF30080FF20BBF1000F55
:1047000018BF85F8290026D04FF0010824B10021F8
:1047100040F2B770AFF300800A98384E022823D0D9
:10472000012829D02DE024B1002140F29170AFF38F
:10473000008095F8312051460420FFF755FB4FF0DB
:104740000108E3E7002C3FF4B9AE002140F29C7071
:10475000AFF30080B2E695F831200121914385F84E
:10476000311085F82900CFE7A8680899401A02F0AF
:10477000D3F9716821B904E071684FF0FF3001B1DD
:104780008847B9F1000F24D024B1002140F2C7704E
:10479000AFF30080B8F1000F11D095F8310000EBB5
:1047A0004000284490F82100202808D024B100219E
:1047B00040F2CE70AFF30080707801F0D9FB24B1E5
:1047C000002140F2D370AFF300800FB04046BDE847
:1047D000F08F0748002818BFAFF3008062B6D3E718
:1047E00004ED00E0380E002000000000380A002030
:1047F00000000000B80D00200000000014000020A0
:1048000010B5202811D20E4991F83130A1F1800263
:1048100002EB831C1CF810303BB191F8313002EBF5
:10482000831212F81020012A01D0002010BD91F847
:10483000312001460020FFF7D7FA012010BD00000B
:10484000380E002070B50D46064601F033FA0F48C9
:1048500090F831200024803800EB821010F81410FA
:1048600029B1611CCCB2202CF8D3202070BD08489F
:10487000C4EBC40140F8216000EB81002146456093
:104880000120FFF7B1FA204670BD0000380E00206D
:10489000380A00202DE9F04F83B000F069FB05468F
:1048A00000F04CFE844C6068B0F1FF3F1CBF4FF03D
:1048B000FF306060A07FDFF8049290B9D4E9021065
:1048C000401A20F07F404FF40C7101F0DFF9E168ED
:1048D0000844281A0002C11700EB11600012C00F33
:1048E00012D0607E20B394F827008DF800009DF868
:1048F0000000E8B100F07EFC94F82800F0B140F22E
:10490000F531702001F060FA94F8320094F832101A
:10491000C0EBC00009EB80004068C1EBC10159F851
:1049200021200821904740F2DD31702001F04CFA3F
:10493000E81C20F07F4000F041FBDDE7012084F817
:10494000280094F83200202821D094F832802020CA
:1049500084F8320084F83300002084F8260084F8BC
:104960002700206000F0C4FE207794F8316006EB49
:104970004600071997F82000202858D0C0EBC00047
:1049800009EB800999F81A00012805D04FE04FF48F
:104990007E71702001F018FAB9F816B001AA6946C4
:1049A000584600F07BF900F09DFE00F05BF994F8AA
:1049B0003200202804D0E068401D20F07F401DE038
:1049C00005F1090ABBF1000F16D001F085F998B97D
:1049D00001F060F8B0F5C67F08BF0D200BD0A0F540
:1049E0004070563808BF1C2005D0A0F500709F38D5
:1049F00014BF0020322082442AF07F40D9F80820DA
:104A0000811A0902CB1701EB1361091200290EDC90
:104A100009F10803824202D29968491E9960D3E9DC
:104A20000021891A1860084420F07F405860314600
:104A30000120FFF70BFA5FEA0009F8D0204800EBED
:104A4000861010F81800022804D13246414606208C
:104A5000FFF7CAF9FF2084F8290097F82100194EC2
:104A600020281CBF707801F083FA207F20B100F06D
:104A70001BFE002020776077B9F1020F11D0B9F149
:104A8000010F1CBF03B0BDE8F08F4FF0FF3071681D
:104A9000002904BF03B0BDE8F08F03B0BDE8F04FBC
:104AA0000847A068401B02F037F871680029F4D16C
:104AB00003B0BDE8F08F0000380E0020380A002057
:104AC000B80D00201400002070B5424C054682B09D
:104AD00094F83200202808D06068B0F1FF3F09D078
:104AE00040F6E421702001F06FF940F6E3217020D8
:104AF00001F06AF994F832003749C0EBC00001EBCD
:104B00008006B06802F008F80246F08A317D334B27
:104B10000844401C11189A4217D8314A90421BDCB5
:104B2000C2F1000C60451EDB56008E42DCBF01F571
:104B3000F701A1F1F85105DD0029BCBFA1F5F7018E
:104B400001F1F8514819994204D940F29E51702060
:104B500001F03AF9954204DD40F29F51702001F0D6
:104B600033F9654504DA4FF4B461702001F02CF993
:104B70008642DCBF00F5F700A0F1F85005DD002803
:104B8000BCBFA0F5F70000F1F85001AA694600F09B
:104B900085F89DF804000F288CBF012000200099A3
:104BA000084420F07F41616094F827008DF80000F0
:104BB0009DF80000002804BF02B070BD052000F081
:104BC00097FB00281CBF02B070BD40F6EB2170209F
:104BD00001F0FAF8380E0020380A0020FF7F841E0A
:104BE0000040420F70B51C4C202184F8201084F83E
:104BF000211084F82210002084F8310084F832104B
:104C0000421EC4E90002A07784F8260084F8270039
:104C10002077607784F83310E26284F83000A4F1E2
:104C200082011022887001F8040F521EFAD100F0A0
:104C300069FD0A4D012684F82860FF202870084885
:104C400001F078F9687001F0D3F9A86000F0E4FC95
:104C500084F8346070BD0000380E0020140000207D
:104C6000113D0000410B48F2376251430A0C094BD9
:104C7000510202FB03020848504300F586306E30B3
:104C8000400D5B4210FB03F3B2EB532F88BF491C6E
:104C900008447047F7C2FFFF6F0C0100430B48F256
:104CA000376C03FB0CF330B41B0CDFF844C05C0220
:104CB00003FB0C030F4858434FEA505C04EB0C0015
:104CC00043F609541CFB04F404F5807C43F60855B4
:104CD000A3EB5C2C2C440CF0FF0CB3EB542F84BFE3
:104CE0004FF0000C401C086082F800C030BC7047D8
:104CF000F7C2FFFF6F0C01002DE9F0413B4DD5F8E5
:104D00000403DFF8EC8010F4803F4FF400664FF0AE
:104D1000E0274FF0000419D036480068B0B1C5F85C
:104D20004041C7F88062D5F84005D8F80010401A15
:104D300020F07F40022802D3B0F5000F06D94FF4CF
:104D40008030C5F808030420FFF786FAD5F804037D
:104D500010F4003F1AD028480068B8B1C5F84441A3
:104D6000C7F880622548D0F84005D8F80010401AEE
:104D700020F07F40022802D3B0F5000F06D94FF48F
:104D80000030C5F808030520FFF766FAD5F80403DC
:104D900010F4802F1AD01A480068B8B1C5F84841FD
:104DA000C7F880621748D0F84005D8F80010401ABC
:104DB00020F07F40022802D3B0F5000F06D94FF44F
:104DC0008020C5F808030620FFF746FAD5F804014D
:104DD000002808BFBDE8F081C5F80441C7F880622B
:104DE0000948C168491CC160BDE8F08100B00040BD
:104DF00004B5004040B1004044B1004004B0004060
:104E000048B1004008B00040200000202DE9F041EA
:104E1000384D2878042868D0A81C0122017859B19F
:104E2000012908BF6A7002D06978002958D0022190
:104E30000170407800F012FB2F4CD4F804034FF0BF
:104E4000000810F4002F4FF480774FF0E0260AD0CE
:104E50002A48006838B1032000F000FBC6F88072D1
:104E60000320FFF7F9F9D4F8040310F4802F0AD0D7
:104E70002348006838B1022000F0F0FAC6F88072CA
:104E80000220FFF7E9F9D4F8040310F4003F0AD038
:104E90001C48006838B1012000F0E0FAC6F88072C2
:104EA0000120FFF7D9F9D4F8040310F4803F08BFBC
:104EB000BDE8F08114480068002808BFBDE8F08113
:104EC000002000F0CBFAC6F8807204202870C5F8E4
:104ED0000480C4F80082BDE8F0410020FFF7BCB9AF
:104EE0004FF495616C2000F06FFFBDE8F0410720A2
:104EF000FFF7B2B920000020008000404C81004044
:104F0000488100404481004040810040012211025C
:104F10004FF0E0230020C3F8801103F5C073BFF306
:104F20004F8FBFF36F8FC3F800110E4941F8042F64
:104F3000431EC1F80433C1F83C05C1F83C010A4BDB
:104F4000C3F84005C1F840011B1DC3F84005C1F876
:104F500044011B1DC3F84005C1F84801CA6003495C
:104F6000487070470080004004800040200000200E
:104F7000014800687047000004B5004030B4EFF30A
:104F8000108C72B600250B4B0B4A00BFD3F80415EA
:104F9000D3F804412CB1D168491CD160C3F8045145
:104FA000F4E7D268BCF1000F00D162B6C0E900128C
:104FB00030BC704700B00040200000202DE9F047D1
:104FC000DFF834810546A8F1020698F80030B06891
:104FD000012B04BFA842BDE8F0874FF04041474A8B
:104FE00011604849464AC1F8082301F1040C4FF00A
:104FF0000004002B55D0444AC1F84823CCF8404562
:10500000C1F84441D1F8482101274FF0E029002A96
:1050100001BFD1F80421002A4FF40062C9F88022B0
:105020004FF0100A4FF48032C1F80823C1F848232A
:10503000C1F84041354AD2F800C0A5EB0C0C2CF069
:105040007F4CBCF1020F37D3BCF5000F34D8C1F848
:1050500040554FF4803CC1F844C32BB11168411A4C
:1050600021F07F410229F9D377603470FFF74EFFBA
:105070002748D0F8041564F30101C0F80415D0F8EE
:105080000825022161F30102C0F808259AFAAAF165
:10509000B1FA81F1092917D940F255311DA000F06C
:1050A00067FEC1F84823C1F84045C1F84041CCF83B
:1050B0004045C1F84441A5E70020C1F840054FF440
:1050C00027716C2000F080FEC0F81015C760716871
:1050D000C0F800124FF48070C9F88002C9F80001CE
:1050E0000F49C00508600420B56088F8010088F801
:1050F0000070BDE8F08700002200002008F50140A4
:10510000FDFFFBFF00B00040FDFFFAFF04B50040CB
:10511000008000406E72665F74696D65722E680073
:1051200004F5014070B52A4CA168814214BF0122E8
:105130000022DFF8A0C09CF80050022D02D0002A07
:1051400034D002E0002A08BF70BD62789AB3224BC7
:105150004FF080421A60214B9213C3F80823C3F822
:1051600048230022C3F840211D4A1668861B26F0FA
:105170007F46022E24D3B6F5000F21D8C3F8400590
:105180004FF48036C3F844632DB11368CB1A23F073
:105190007F43022BF9D3134B02214A071A60A06008
:1051A00004208CF801008CF8001070BD40F2AA2198
:1051B0006C2000F009FE40F2AE216C2000F004FEED
:1051C0000020C3F8400540F2BA216C2000F0FCFD3D
:1051D000200000202200002008F5014000B000401F
:1051E00004B5004004F501400148806870470000A4
:1051F000200000202DE9F0413648354AC0F8082348
:10520000DFF8D4C0031D00219CF8004084B1334A6C
:10521000C0F84823C3F84015C0F84411D0F848211D
:105220000123002A04BFD0F80401002811D10AE0AC
:10523000C0F84823C0F84015C0F84011C3F8401525
:10524000C0F84411EAE74FF0E0224FF40060C2F8E2
:105250008002022C04D040F2C6216C2000F0B4FD84
:105260001F4E30681F4CC01C20F07F40A2681E4DAE
:1052700090420BD03768D71B27F07F47042F05D308
:10528000B7F5000F02D8FFF799FE1BE03068101A3F
:1052900020F07F40022813D3B0F5000F10D8134A36
:1052A0004FF080401060636021706B60EB604000E5
:1052B000111F086004208CF801008CF8003001E018
:1052C000636021706068C5F80002BDE8F0810000ED
:1052D000FDFFFBFF00B0004022000020FDFFFAFFB1
:1052E00004B50040200000200080004008F5014087
:1052F0002DE9F041544A0025012492F800C053786A
:105300004FF4A07607287DD2DFE800F004040404FF
:10531000585858004D4A9768B7F1807F04BF5278BB
:10532000002A03D0BCF1020F05D026E040F256312E
:105330006C2000F049FD1A1FD2B206EB820202F186
:10534000804606F530460022BCF1010F03D0BCF1C7
:10535000020F08D00EE0042B24BF3768002F08BFCF
:105360004FF0004206E0042B24BF3768002F08BF2F
:1053700042F0804212F0804FE5D1DFF8D4C000F156
:10538000100204FA02F2CCF808234FF0400303EBBA
:105390008003DBB263441C600CEB8000D0F8403526
:1053A000A1EB030323F07F43032B26BFC0F8401576
:1053B000CCF80423C0F8405537D23CE0BCF1000FD4
:1053C00006D0834204D140F276316C2000F0FCFC20
:1053D000021FD3B2032B04D340F2D1116C2000F092
:1053E000F3FCDFF870C003F1100204FA02F2CCF80B
:1053F0000823CCF8482306EB83034CF80350164BE4
:105400001B6800E01AE0001FCB1A23F07F43C0B2F4
:105410000CEB8000022B0BD3B3F5000F08D8C0F8BB
:105420004015CCF80423CCF844230120BDE8F081DA
:105430000021C0F840150020BDE8F08140F27A312B
:105440006C2000F0C1FC00002200002020000020A1
:105450000080004000B0004004B500402DE9F84352
:10546000012600274FF4A078072851D2DFE800F08A
:10547000040404041919190000F1100106FA01F2DC
:105480002649C1F8082301EB80030022C3F8402518
:1054900008EB80028F50224951F820000090BDE8AF
:1054A000F883204D011FCCB2297879B16A78824205
:1054B0000CD11D4A4FF040401060012908BFFFF792
:1054C00025FD2F7019494FF080708860184904F14C
:1054D000100006FA00F0C1F80803C1F84803A00064
:1054E0000844D0F84005134A1268801A20F07F4023
:1054F000022807D301EB84020020C2F8400508EB24
:1055000084000F500C4850F824000090BDE8F88348
:1055100040F2FE316C2000F057FC0000008000409B
:10552000408100402200002008F5014020000020BA
:1055300000B0004004B5004040B100402548244A76
:10554000C0F808232449031D91F800C00021BCF1D4
:10555000000F10D0214AC0F84823C3F84015C0F806
:10556000441100BFD0F84821002A04BFD0F804013C
:10557000002811D10AE0C0F84823C0F84015C0F84F
:105580004011C3F84015C0F84411EBE74FF0E0229A
:105590004FF40060C2F8800211484FF0FF32C0F8AB
:1055A0000823C0F84015C0F8401100F10402C2F809
:1055B0004015C0F8441102F10402C2F84015C0F8C9
:1055C000481102F10402C2F84015C0F84C117047AE
:1055D000FDFFFBFF00B0004022000020FDFFFAFFAE
:1055E0000080004010B507280DD2DFE800F0040469
:1055F000040406060600064902E0001F0549C0B281
:1056000001EB800010BD40F29E316C2000F0DCFB0D
:105610004081004040B1004070B51F480024042183
:105620000470801E01708905C4608160FFF76EFC04
:1056300001254FF0E02CEB02CCF88031BFF34F8F07
:10564000BFF36F8FCCF880321448456085601449F1
:105650000A68002AFCD1511EC0F80813C0F848138C
:10566000C0F84045C0F840410E49C1F84045C0F877
:105670004441091DC1F84045C0F84841C0F8044103
:10568000CCF8003105604FF48271C0F84413022158
:10569000C0F8041370BD00002200002000B00040DC
:1056A00004B5004004B00040084890F9000000280C
:1056B000B8BF704700F01F01012202FA01F1400952
:1056C000800000F1E020C0F8001270478400002044
:1056D0000348007803280CBF012000207047000019
:1056E00080000020014840887047000080000020B2
:1056F00003480078022816BF0328012000207047C5
:1057000080000020024800210170418070470000A5
:10571000800000202DE9F041164C607A002827D047
:105720004FF480718D05284601F029FA80464FF428
:105730008271284601F023FA00260746B8F1000FCF
:1057400009D00120C5F80803207920B12671E0694D
:1057500008B18047E66137B1C5F804610220C5F899
:10576000080300F051FA4046BDE8F04100F058B897
:10577000BDE8F0813000002010B501F0AAFA30B980
:1057800001F0C8FA18B901F0DBFA002802D002498A
:105790000220086010BD0000340C004070B500F01D
:1057A0009BF900F099FA094C4FF0804530B1FFF7B2
:1057B000E3FF012028610420A07204E00320A0720E
:1057C0000120C5F804030020E07170BD3000002006
:1057D00070B5124CA079E0B1E179401E814218DA2F
:1057E00000F07AFA054600F063FBA179012902D99D
:1057F000E179491CE1710DB1616900E02169411A4B
:10580000022902DA11F1020F07DC0DB1606100E03C
:105810002061BDE87040FFF7C1BF70BD30000020BF
:105820002DE9F04706464FF080454FF48671284633
:1058300001F0A5F980464FF48871284601F09FF9E0
:10584000274C8246277804F1080001F00CFA10B1C9
:105850004FF4DB7116E04FF0010946B1A07A03283E
:1058600005D10420A072FFF787FFC5F8109000262D
:10587000B8F1000F18D0C5F80C61A07A042804D044
:105880004FF4E4716D2000F09FFA01F022FA28B97C
:1058900001F040FA10B901F053FA08B1114806605E
:1058A0000220A07200F0FCF8BAF1000F08D0C5F891
:1058B0001061A07A022801D1FFF78AFFC5F8149081
:1058C0003FB12670A07A022801D1FFF767FF00F0F0
:1058D000E7F8BDE8F0470248083001F0DBB9000006
:1058E00030000020340C00402DE9F041494C0027E5
:1058F0000646A761427881780078E0726271A171F2
:10590000E7714FF001084FF08045052825D2DFE808
:1059100000F0100306202200C4F8188009E000F00F
:10592000DBF80121284601F02FF90028F9D00220E8
:10593000A06101F055F9C0B100F0E8F9217E01F055
:105940000301884211D1B07960B10220C5F8040387
:1059500044E03148ECE73148EAE740F23D316D2060
:1059600000F032FA00F0A6F938E0C5F80C80C5F86E
:105970000471A069C5F8180501F097F940B901F064
:105980009EF928B901F0B2F910B901F0C3F938B1A4
:105990004FF08050D0F844022149C0F342300860F3
:1059A00001F083F940B901F08AF928B901F09EF9B4
:1059B00010B901F0AFF918B119491031C1F80080E0
:1059C000C5F808800220C5F80403B07930B900F0AA
:1059D00029F80220C5F80803C5F80471A07970B150
:1059E000307860B900F078F9064600F061FA6FF09F
:1059F000004116B1C4E9041001E0C4E90401012129
:105A0000284601F0C1F808B100F060F9A772BDE8BE
:105A1000F0810000300000200100020001000300BE
:105A20003C0500402DE9F0414FF08045D5F80403D6
:105A300010F0020F11D0164C2068C04340F300163E
:105A4000206840F0100020604FF4827739462846E5
:105A5000761C01F094F828B10AE04FF43E716D20F5
:105A600000F0B2F901F078F902E000BF01F072F93C
:105A70003946284601F083F80028F7D000F01AF9DB
:105A8000002E03D1206820F010002060BDE8F081D6
:105A900010ED00E00148C089704700003000002090
:105AA00010B5EFF3108472B60A48417829B14178F5
:105AB000491E4170417829B108E040F219116D206A
:105AC00000F082F9807808B900F014F9002C00D1B8
:105AD00062B610BD3000002010B5EFF3108472B62E
:105AE00006484178491C41704078012801D101F0F5
:105AF00062F8002C00D162B610BD0000300000201A
:105B0000054810B5C17821B100210171C170FFF7BE
:105B1000C7FF002010BD00003000002070B50C4C05
:105B2000E17861B90125E570E061FFF7D5FF00F08C
:105B3000D3F830B1E06910B180470020E061002067
:105B400070BD4FF080402571C0F80453F7E70000A6
:105B5000300000202DE9F04105006FF015003FD026
:105B6000297804293CD8002969783BD0002937D10D
:105B7000A978002934D1002000F0F0FF002000F0C7
:105B8000E0FF4FF080484FF0FF31C8F808130026BF
:105B9000C8F80061C8F80461C8F80C61C8F8106161
:105BA000144C6670A888A08100F0FCFF012708B1A2
:105BB000E77067700121404600F0E6FF08B100F091
:105BC00085F840F2F550E0812846FFF78DFE6772B8
:105BD000002000F0B6FF4FF0E0213046C1F8007120
:105BE000BDE8F0810029FBD02029F9D8A978212926
:105BF000C1D9F5E7300000200248807A002800D0A3
:105C00000120704730000020F8B51F4DE87A0028C9
:105C10000FD1287E00F0030000F0D2FF002808D04A
:105C2000EFF3108172B6FFF7E7FF18B1002900D13A
:105C300062B6F8BD0126AE7201B962B618204FF007
:105C40008044C4F80803A6614FF42070ADF800004A
:105C5000BDF80000411EADF80010F9D20027C4F8CD
:105C60000C71C4F810710848083001F00FF82F705B
:105C7000FFF794FD6661687900F07F00C4F838058D
:105C80001820C4F80403F8BD30000020024610B507
:105C9000002000290AD0002A08D0A2FB0101401EE2
:105CA000034A41F1FF3101F059F8401C10BD0000DA
:105CB00040420F0010B5044C207E00F0030000F0BD
:105CC0007FFF0028F8D010BD3000002001490120DE
:105CD00008707047850000204FF08040D0F8000128
:105CE00018B903480078002800D001207047000050
:105CF000850000204FF08040012141600021C0F864
:105D000000110148017070478500002002480068BA
:105D100000F00300704700001C04004010B531B1D2
:105D2000012907D040F2023105A000F021F8D0F897
:105D3000140401E0D0F8080400F0010010BD0000D8
:105D40006E72665F636C6F636B2E6800BFF34F8F7C
:105D500005480168054A01F4E06111430160BFF3A1
:105D60004F8F00BFFDE700000CED00E00400FA05D6
:105D700072B6034A526802B19047FFF7E7FF00008E
:105D800050000020064810B500210160012101608B
:105D9000084600F03CFFBDE81040012000F02ABF9B
:105DA000FC1F0040074810B501214160891EC0F862
:105DB00008130C2000F02BFFBDE810400C2000F071
:105DC00019BF000000C000400EB572B60F4A5568FA
:105DD000D5B1002203466E460A2403E0B0FBF4F07E
:105DE000521CD2B20028F9D1B05409E0B3FBF4F050
:105DF00004FB1030B3FBF4F3521ED2B23030B05477
:105E0000002AF3D13046A847FFF7A0FF500000203A
:105E10002DE9F041184C0646174660780D4618B13A
:105E20004FF0FF30BDE8F081FCF738FE06B9134EA5
:105E300067602570FFF7A6FFFFF7B4FF3046FFF756
:105E400089FE0600EED1FEF7CDFEFFF7DDFE00F085
:105E5000C8FD284600F0CEFE0120002D09DB05F02C
:105E60001F0100FA01F16A09920002F1E022C2F872
:105E7000001160703046D5E750000020306C000003
:105E8000014840787047000050000020074890F912
:105E90000000002809DB00F01F02012191404009A9
:105EA000800000F1E020C0F8001270475000002090
:105EB0002DE9F04101264FF0E02231034FF00008B8
:105EC0004046C2F88011BFF34F8FBFF36F8F164C5F
:105ED000C4F800010C2000F0B9FE144D2868C0433E
:105EE00040F30017286840F010002860C4F80463ED
:105EF00026607F1C02E000BF00F02CFFD4F80001F8
:105F00000028F9D01FB9286820F010002860084840
:105F100005686660C4F80863C4F800810C2000F0CE
:105F200095FE2846BDE8F08100C0004010ED00E07D
:105F300008C5004010B5024605200C4904E000BF2A
:105F400001EBC0031B7933B1401EC0B2F8D2482127
:105F50006920FFF739FF41F8302001EBC001002232
:105F60004A718A7101220A7110BD0000700E002072
:105F700010B5052801D3582106E00A4901EBC000FD
:105F80000179012903D059216920FFF71DFF4179CB
:105F90008279491CC9B28A4200D04171BDE81040E3
:105FA000FFF774BF700E002070B505250E4E0F4C24
:105FB00016E0217806EBC1000279012A08D1427966
:105FC00083799A4204D04279827156F83100804731
:105FD0002078401CC0B22070052801D3002020701A
:105FE0006D1EEDB2E5D270BD700E0020860000205F
:105FF00000B500F05AFE40B900F061FE28B900F08B
:1060000075FE10B900F086FE08B1024800BD0248D6
:1060100000BD00000C05004000E7014010B500F095
:1060200079FE30B3EFF31080C8B1002172B6124888
:1060300002680368C2F3001243F0100303604FF0DC
:10604000E023D3F80042D3F804321C4300D040BF11
:1060500020BF00BF00BF00BF00BF12B105E001219B
:10606000E4E7026822F010020260002900D062B664
:1060700010BD20BF10BD000010ED00E0014909680F
:1060800089680847580000200149096809690847DC
:106090005800002001480068406800475800002070
:1060A000014909680968084758000020B36F0000DB
:1060B000AB6F00009F6F0000AF6F0000A76F000084
:1060C000094810B58178042908D010290AD0202960
:1060D00008D040F2CD116B20FFF776FE10218170C1
:1060E00017F06EFA10BD00005C0000200B4810B5E0
:1060F000017831B1EFF3108472B68178102905D0A0
:1061000008E040F21B316B20FFF75EFE0821817032
:10611000FEF7C0FB002C00D162B610BD5C00002071
:1061200070B5124C207858B1EFF3108572B66079D3
:1061300048B1022809D04FF439716B20FFF744FEB3
:1061400040F2D121F9E7012003E0A17800200429E1
:1061500001D0607102E0607117F022FA05B962B6F1
:10616000E078BDE87040FFF703BF00005C0000204E
:106170000E4810B5017859B1EFF3108172B642792B
:106180004AB1012A09D04FF443716B20FFF71CFE7E
:106190004FF43F71F9E7022200E00022427101B999
:1061A00062B6C078BDE81040FFF7E2BE5C00002098
:1061B00010B5134C207810B140F28D211DE0002065
:1061C00060700120A0700F484FF4C8510160052194
:1061D0000181B72141810C4941600C48FFF7AAFEBB
:1061E000E07000210A48FEF72DFB2071202802D024
:1061F0000120207010BD4FF427716B20FFF7E4FDE4
:106200005C000020180A0020FF3F420F39630000A5
:1062100069620000114810B58178042901D000207E
:1062200010BD8079A8B1FEF7A3FE441C012000F048
:1062300080FC001B0002C11700EB11600012002857
:1062400000DC00200649A0FB0101C00B40EA4140F0
:1062500010BD044801684089081A10BD5C00002088
:1062600040420F00180A002070B50E46FEF780FE6F
:1062700000252E4C082E31D2DFE806F030043B3BDF
:10628000211C4C410121022000F000F9607858B136
:106290000420A07026480068A060A57160790228DB
:1062A0003FD017F07DF93CE02020A070BDE87040A1
:1062B000FEF7F0BA40F215216B20FFF785FD6078FC
:1062C00000280BD0A078042809D04FF0E02102204C
:1062D000C1F88001BFF34F8FBFF36F8F70BD00F027
:1062E00073F818B11348D0F84401B0B910F056FB58
:1062F00070BD0121022004E00120A07070BD0121C9
:10630000282000F0C3F860780028F5D0BDE8704080
:1063100000F096B800F058F818B1BDE87040FFF7EB
:10632000CFBEBDE8704000F057B800005C00002010
:10633000180A002000B0004070B5EFF3108472B668
:10634000204D002069796871C1B3012906D0022966
:1063500018D084F310884FF4D77128E084F31088A4
:10636000687810B140F25B1121E00021142000F0A8
:106370008DF801206870A878012821D1BDE870400F
:1063800000F05EB8697849B16870A878082815D01F
:1063900007DC022812D0042807D10BE04FF4B671B5
:1063A00005E0102806D0202808D04FF4C4716B20D7
:1063B000FFF70AFD2020A870FEF76CFA84F310881E
:1063C00070BD00005C00002002488079012800D0E8
:1063D000002070475C00002070B50320FDF7D6FE5A
:1063E000154D2968814200D8084606460321FDF76D
:1063F000EFFD124C012130B1012818D04FF4A771E4
:106400006B20FFF7E1FC2868B042A06806D1FEF7D8
:106410005BFB2868A1680844A06070BD3044A060A0
:10642000A1716989401ABDE87040FEF74DBBA171AA
:106430006889A168081AF6E7180A00205C000020A5
:1064400010B5182200210F4800F049FD0D48012128
:106450000170002101810321817200F118010A6895
:10646000426049680161084802218170054900794C
:10647000FDF7D8FF002804D14FF483716B20FFF79C
:10648000A3FC10BD000A00205C0000200B4A10B5E0
:10649000927812B1531E1A4201D0E02109E021B1D5
:1064A0000240900608D1E52103E08243900603D123
:1064B000E9216B20FFF788FC10BD00005C00002084
:1064C0000149012088707047680000203970000081
:1064D000717000005B700000497000005570000092
:1064E0004370000037700000357000006D700000D0
:1064F000617000004F7000003D7000002F700000C0
:10650000277000002B700000217000000148006817
:10651000C06B00477C000020014A1268126B1047D4
:106520007C00002001490968896908477C00002037
:1065300001480068006800477C00002001480068AE
:10654000406900477C000020014A1268D268104769
:106550007C00002001480068006900477C000020A2
:10656000014A1268926810477C00002001490968BE
:10657000496A08477C00002030B4034C24686468F2
:10658000A44630BC604700007C0000200148007831
:1065900070470000870000202DE9F04786468C46B2
:1065A0000846089E154674461946002B40F0C280E6
:1065B0008542B2FA82F245D94AB1C2F1200300FA0B
:1065C00002FC2EFA03F3954043EA0C0C94404FEA88
:1065D000154EA8B2BCFBFEF8230C0EFB18CC08FB32
:1065E00000F943EA0C43994528D9EB1808F1FF3725
:1065F00004D2994502D9A8F102072B44A3EB090361
:10660000A4B2B3FBFEFC0EFB1C330CFB00F044EA0F
:106610000344A04214D92C190CF1FF3304D2A04238
:1066200002D9ACF102032C44241A43EA07401EB1FC
:10663000D440002334607360BDE8F0874746DDE74F
:106640006346F1E792BB431B01214FEA154EAFB2FF
:10665000B3FBFEFC200C0EFB1C330CFB07F840EADE
:106660000343984562D9EB180CF1FF3004D29845EA
:1066700002D9ACF102002B44A3EB0803A4B2B3FB94
:10668000FEFC0EFB1C330CFB07F744EA0344A74255
:106690004ED92C190CF1FF3304D2A74202D9ACF128
:1066A00002032C44E41B43EA0040C0E7C2F120038C
:1066B00020FA03F1954090402EFA03F303434FEA8A
:1066C000154EAFB2B1FBFEFC0EFB1C10190C0CFBFF
:1066D00007F841EA0041884504FA02F422D9691812
:1066E0000CF1FF3004D2884502D9ACF102002944F4
:1066F000A1EB08019BB2B1FBFEFC0EFB1C110CFBD5
:1067000007F743EA01439F420ED9EB180CF1FF3122
:1067100004D29F4202D9ACF102012B44DB1B41EAB7
:10672000004192E76046E3E76146F7E76046A3E78A
:106730006346B7E7834206D916B9002108467BE7CE
:10674000C6E900E0F9E7B3FA83F78FB9834201D3D2
:10675000724508D8BEEB020460EB030301209C469F
:106760001EB9002168E73846FAE7C6E9004CF8E7A9
:10677000C7F1200CBB4022FA0CF41C432EFA0CF19A
:1067800020FA0CF3B84001434FEA14490EFA07F51A
:10679000B3FBF9F81FFA84FE09FB18300B0C08FB59
:1067A0000EFA43EA00439A4502FA07F240D9E31889
:1067B00008F1FF3004D29A4502D9A8F1020023441F
:1067C000A3EB0A0389B2B3FBF9F809FB183308FB02
:1067D0000EFE41EA03418E452CD9611808F1FF33C2
:1067E00004D28E4502D9A8F10203214443EA0040B5
:1067F000A0FB0298A1EB0E014145CE46434602D3D1
:1068000006D14D4504D2B9EB020E68EB0403013802
:10681000002EA6D0B5EB0E0261EB030101FA0CFCD1
:1068200022FA07F34CEA0303F940C6E9003198E77E
:106830004046C5E74346D9E710F8012B11F8013B64
:10684000012A28BF9A42F7D0D01A7047034613F89E
:10685000012B002AFBD1181A01387047042802D2F4
:106860004FF02800704702D14FF0100070474FF0F2
:10687000000070472DE9F0410D0004464FF002067C
:106880004FF0010708D02878D0B1012807D002289E
:1068900014D003283ED116E080F829700EE0686815
:1068A000C82803D30321FDF793FB08B1002607E0B6
:1068B0002046696800F033F8012601E0FCF7BEFAD3
:1068C0003046BDE8F08194F824000028F6D16868CD
:1068D000FCF786FAF0B16968087830B194F82600C0
:1068E000052808D04FF4BE7111E0204600F01FF8D3
:1068F00084F82570E2E7204600F032F894F827008B
:10690000214600F00AF80028D8D14FF4BF716A2060
:10691000FFF75AFA84F82970D0E7FDF783BD0246E5
:1069200003784068084450605938FEF7CDB801221A
:1069300002700022C2720A7972B1002202814A7981
:1069400062B1032282728A686A324260C968016158
:10695000032180F8261070472B22EFE70222F1E78F
:1069600010B500220270C2720A79A2B1002202811F
:106970004A7992B103228272CA686A324260D0E9CF
:1069800006428968CB1761185A41C0E904120421F4
:1069900080F8261010BD2B22E9E70222EBE770B544
:1069A00005460C4691F82700FDF72AFF78B12046EE
:1069B00000F010F8226A092128469047002808D0E4
:1069C0000078002805D0DC216A20FFF7FDF9D821E6
:1069D000FAE770BD002180F8261000F8241F4170EE
:1069E000704770B5FCF786FA0546002406E020469D
:1069F000FCF786FAFFF7EEFF641CE4B2AC42F6D374
:106A000070BD2DE9F0410D46FCF77AFA040008D07C
:106A100094F826006FF02206012806D0022811D132
:106A200003E06FF00100BDE8F0816FF015075DB184
:106A30002846FCF7D5F938B1287838B194F8260003
:106A4000022808D03046EEE73846ECE729462046D3
:106A5000FFF76DFF03E029462046FFF781FF94F81A
:106A600027002146FFF759FF08B10020DBE740F27D
:106A7000B1216A20FFF7A8F910B50446FCF740FAE7
:106A8000010005D091F824006FF0220278B902E0ED
:106A90006FF0010010BD91F8260040B1022808D027
:106AA000012806D0012081F82400002010BD1046E6
:106AB00010BD2046FFF773FFF7E72DE9F0410E46C2
:106AC0000746FCF717FA054600240BE02046FCF7C2
:106AD00017FA90F8260018B14FF0FF30BDE8F081AA
